{
  "address": "0x11481cE73F15aFB6175865220404b86d950F17C7",
  "abi": [
    {
      "inputs": [
        {
          "internalType": "address",
          "name": "_vrfCoordinatorAddress",
          "type": "address"
        },
        {
          "internalType": "bytes32",
          "name": "_keyHash",
          "type": "bytes32"
        },
        {
          "internalType": "uint64",
          "name": "_subscriptionId",
          "type": "uint64"
        },
        {
          "internalType": "uint256",
          "name": "_platformFee",
          "type": "uint256"
        }
      ],
      "stateMutability": "nonpayable",
      "type": "constructor"
    },
    {
      "inputs": [],
      "name": "CallerIsNotTheOwner",
      "type": "error"
    },
    {
      "inputs": [],
      "name": "LotteryAlreadyClosed",
      "type": "error"
    },
    {
      "inputs": [],
      "name": "LotteryDoesNotExist",
      "type": "error"
    },
    {
      "inputs": [],
      "name": "LotteryDurationNotEnough",
      "type": "error"
    },
    {
      "inputs": [],
      "name": "LotteryHasNotFinishedYet",
      "type": "error"
    },
    {
      "inputs": [],
      "name": "NotEnoughParticipants",
      "type": "error"
    },
    {
      "inputs": [
        {
          "internalType": "address",
          "name": "have",
          "type": "address"
        },
        {
          "internalType": "address",
          "name": "want",
          "type": "address"
        }
      ],
      "name": "OnlyCoordinatorCanFulfill",
      "type": "error"
    },
    {
      "inputs": [],
      "name": "OnlySimulatedBackend",
      "type": "error"
    },
    {
      "inputs": [],
      "name": "OwnerCannotParticipateInLotteries",
      "type": "error"
    },
    {
      "inputs": [],
      "name": "TicketPaymentIsNotExact",
      "type": "error"
    },
    {
      "inputs": [],
      "name": "TicketPriceNotGreaterThanZero",
      "type": "error"
    },
    {
      "inputs": [],
      "name": "UserHasAlreadyParticipated",
      "type": "error"
    },
    {
      "anonymous": false,
      "inputs": [
        {
          "indexed": true,
          "internalType": "uint256",
          "name": "id",
          "type": "uint256"
        },
        {
          "indexed": true,
          "internalType": "uint256",
          "name": "ticketPrice",
          "type": "uint256"
        },
        {
          "indexed": false,
          "internalType": "uint256",
          "name": "endDate",
          "type": "uint256"
        }
      ],
      "name": "LotteryCreated",
      "type": "event"
    },
    {
      "anonymous": false,
      "inputs": [
        {
          "indexed": true,
          "internalType": "uint256",
          "name": "lotteryId",
          "type": "uint256"
        },
        {
          "indexed": true,
          "internalType": "address",
          "name": "user",
          "type": "address"
        }
      ],
      "name": "ParticipationRegistered",
      "type": "event"
    },
    {
      "anonymous": false,
      "inputs": [
        {
          "indexed": true,
          "internalType": "uint256",
          "name": "lotteryId",
          "type": "uint256"
        },
        {
          "indexed": true,
          "internalType": "address",
          "name": "winner",
          "type": "address"
        }
      ],
      "name": "WinnerDeclared",
      "type": "event"
    },
    {
      "anonymous": false,
      "inputs": [
        {
          "indexed": true,
          "internalType": "uint256",
          "name": "lotteryId",
          "type": "uint256"
        },
        {
          "indexed": true,
          "internalType": "uint256",
          "name": "requestId",
          "type": "uint256"
        }
      ],
      "name": "WinnerRequested",
      "type": "event"
    },
    {
      "inputs": [
        {
          "internalType": "bytes",
          "name": "",
          "type": "bytes"
        }
      ],
      "name": "checkUpkeep",
      "outputs": [
        {
          "internalType": "bool",
          "name": "",
          "type": "bool"
        },
        {
          "internalType": "bytes",
          "name": "",
          "type": "bytes"
        }
      ],
      "stateMutability": "view",
      "type": "function"
    },
    {
      "inputs": [
        {
          "internalType": "uint256",
          "name": "_ticket",
          "type": "uint256"
        },
        {
          "internalType": "uint256",
          "name": "_duration",
          "type": "uint256"
        }
      ],
      "name": "createLottery",
      "outputs": [],
      "stateMutability": "nonpayable",
      "type": "function"
    },
    {
      "inputs": [
        {
          "internalType": "uint256",
          "name": "_lotteryId",
          "type": "uint256"
        }
      ],
      "name": "declareWinner",
      "outputs": [],
      "stateMutability": "nonpayable",
      "type": "function"
    },
    {
      "inputs": [],
      "name": "getBalance",
      "outputs": [
        {
          "internalType": "uint256",
          "name": "",
          "type": "uint256"
        }
      ],
      "stateMutability": "view",
      "type": "function"
    },
    {
      "inputs": [
        {
          "internalType": "uint256",
          "name": "_lotteryId",
          "type": "uint256"
        }
      ],
      "name": "getLottery",
      "outputs": [
        {
          "components": [
            {
              "internalType": "uint256",
              "name": "id",
              "type": "uint256"
            },
            {
              "internalType": "uint256",
              "name": "ticket",
              "type": "uint256"
            },
            {
              "internalType": "uint256",
              "name": "endTime",
              "type": "uint256"
            },
            {
              "internalType": "uint256",
              "name": "jackpot",
              "type": "uint256"
            },
            {
              "internalType": "address",
              "name": "winner",
              "type": "address"
            },
            {
              "internalType": "enum LotteryGame.State",
              "name": "state",
              "type": "uint8"
            }
          ],
          "internalType": "struct LotteryGame.Lottery",
          "name": "",
          "type": "tuple"
        }
      ],
      "stateMutability": "view",
      "type": "function"
    },
    {
      "inputs": [],
      "name": "getOpenLotteriesIds",
      "outputs": [
        {
          "internalType": "uint256[]",
          "name": "",
          "type": "uint256[]"
        }
      ],
      "stateMutability": "view",
      "type": "function"
    },
    {
      "inputs": [
        {
          "internalType": "uint256",
          "name": "_lotteryId",
          "type": "uint256"
        }
      ],
      "name": "getParticipantsByLotteryId",
      "outputs": [
        {
          "internalType": "address[]",
          "name": "",
          "type": "address[]"
        }
      ],
      "stateMutability": "view",
      "type": "function"
    },
    {
      "inputs": [
        {
          "internalType": "address",
          "name": "_user",
          "type": "address"
        }
      ],
      "name": "getParticipationsByUser",
      "outputs": [
        {
          "internalType": "uint256[]",
          "name": "",
          "type": "uint256[]"
        }
      ],
      "stateMutability": "view",
      "type": "function"
    },
    {
      "inputs": [],
      "name": "lotteryId",
      "outputs": [
        {
          "internalType": "uint256",
          "name": "_value",
          "type": "uint256"
        }
      ],
      "stateMutability": "view",
      "type": "function"
    },
    {
      "inputs": [],
      "name": "owner",
      "outputs": [
        {
          "internalType": "address",
          "name": "",
          "type": "address"
        }
      ],
      "stateMutability": "view",
      "type": "function"
    },
    {
      "inputs": [
        {
          "internalType": "uint256",
          "name": "_lotteryId",
          "type": "uint256"
        }
      ],
      "name": "participate",
      "outputs": [],
      "stateMutability": "payable",
      "type": "function"
    },
    {
      "inputs": [
        {
          "internalType": "bytes",
          "name": "performData",
          "type": "bytes"
        }
      ],
      "name": "performUpkeep",
      "outputs": [],
      "stateMutability": "nonpayable",
      "type": "function"
    },
    {
      "inputs": [],
      "name": "platformFee",
      "outputs": [
        {
          "internalType": "uint256",
          "name": "",
          "type": "uint256"
        }
      ],
      "stateMutability": "view",
      "type": "function"
    },
    {
      "inputs": [
        {
          "internalType": "uint256",
          "name": "",
          "type": "uint256"
        }
      ],
      "name": "randomWords",
      "outputs": [
        {
          "internalType": "uint256",
          "name": "",
          "type": "uint256"
        }
      ],
      "stateMutability": "view",
      "type": "function"
    },
    {
      "inputs": [
        {
          "internalType": "uint256",
          "name": "requestId",
          "type": "uint256"
        },
        {
          "internalType": "uint256[]",
          "name": "randomWords",
          "type": "uint256[]"
        }
      ],
      "name": "rawFulfillRandomWords",
      "outputs": [],
      "stateMutability": "nonpayable",
      "type": "function"
    },
    {
      "inputs": [
        {
          "internalType": "uint64",
          "name": "_subscriptionId",
          "type": "uint64"
        }
      ],
      "name": "setSubscriptionId",
      "outputs": [],
      "stateMutability": "nonpayable",
      "type": "function"
    },
    {
      "inputs": [],
      "name": "subscriptionId",
      "outputs": [
        {
          "internalType": "uint64",
          "name": "",
          "type": "uint64"
        }
      ],
      "stateMutability": "view",
      "type": "function"
    },
    {
      "inputs": [],
      "name": "withdraw",
      "outputs": [],
      "stateMutability": "nonpayable",
      "type": "function"
    }
  ],
  "transactionHash": "0xf8ae4c5fd045d6007755834c0ce19c565dfc038b4a5f8567c26d8f5fea12ca65",
  "args": [
    "0x7a1BaC17Ccc5b313516C5E16fb24f7659aA5ebed",
    "0x4b09e658ed251bcafeebbc69400383d49f344ace09b9576fe248bb02c003fe9f",
    "2037",
    "10"
  ],
  "numDeployments": 2,
  "solcInputHash": "395e501a4b9fd140ce0bfdffdfc4e52a",
  "bytecode": "0x60a06040523480156200001157600080fd5b5060405162002ab838038062002ab8833981810160405281019062000037919062000254565b838073ffffffffffffffffffffffffffffffffffffffff1660808173ffffffffffffffffffffffffffffffffffffffff16815250505083600660006101000a81548173ffffffffffffffffffffffffffffffffffffffff021916908373ffffffffffffffffffffffffffffffffffffffff16021790555082600281905550816000806101000a81548167ffffffffffffffff021916908367ffffffffffffffff16021790555033600760006101000a81548173ffffffffffffffffffffffffffffffffffffffff021916908373ffffffffffffffffffffffffffffffffffffffff1602179055508060018190555050505050620002c6565b600080fd5b600073ffffffffffffffffffffffffffffffffffffffff82169050919050565b6000620001618262000134565b9050919050565b620001738162000154565b81146200017f57600080fd5b50565b600081519050620001938162000168565b92915050565b6000819050919050565b620001ae8162000199565b8114620001ba57600080fd5b50565b600081519050620001ce81620001a3565b92915050565b600067ffffffffffffffff82169050919050565b620001f381620001d4565b8114620001ff57600080fd5b50565b6000815190506200021381620001e8565b92915050565b6000819050919050565b6200022e8162000219565b81146200023a57600080fd5b50565b6000815190506200024e8162000223565b92915050565b600080600080608085870312156200027157620002706200012f565b5b6000620002818782880162000182565b94505060206200029487828801620001bd565b9350506040620002a78782880162000202565b9250506060620002ba878288016200023d565b91505092959194509250565b6080516127cf620002e96000396000818161079001526107e401526127cf6000f3fe6080604052600436106101085760003560e01c806382d63ee6116100955780639384c39d116100645780639384c39d1461034a578063beff730f14610387578063e580f47b146103c4578063ea7b4f77146103ef578063fe35804e1461041857610108565b806382d63ee61461029b578063845c9306146102c65780638da5cb5b146102e257806392e845f61461030d57610108565b80631fe543e3116100dc5780631fe543e3146101c957806326232a2e146101f25780633ccfd60b1461021d5780634585e33b146102345780636e04ff0d1461025d57610108565b8062c2943c1461010d57806309c1ba2e1461013657806309daa39d1461016157806312065fe01461019e575b600080fd5b34801561011957600080fd5b50610134600480360381019061012f9190611c15565b610441565b005b34801561014257600080fd5b5061014b61070b565b6040516101589190611c65565b60405180910390f35b34801561016d57600080fd5b5061018860048036038101906101839190611c15565b610723565b6040516101959190611d70565b60405180910390f35b3480156101aa57600080fd5b506101b3610747565b6040516101c09190611da1565b60405180910390f35b3480156101d557600080fd5b506101f060048036038101906101eb9190611f15565b61078e565b005b3480156101fe57600080fd5b5061020761084e565b6040516102149190611da1565b60405180910390f35b34801561022957600080fd5b50610232610854565b005b34801561024057600080fd5b5061025b60048036038101906102569190611fcc565b610956565b005b34801561026957600080fd5b50610284600480360381019061027f9190611fcc565b610a62565b6040516102929291906120bc565b60405180910390f35b3480156102a757600080fd5b506102b0610beb565b6040516102bd91906121aa565b60405180910390f35b6102e060048036038101906102db9190611c15565b610bfc565b005b3480156102ee57600080fd5b506102f7610ed7565b60405161030491906121db565b60405180910390f35b34801561031957600080fd5b50610334600480360381019061032f9190611c15565b610efd565b60405161034191906122e8565b60405180910390f35b34801561035657600080fd5b50610371600480360381019061036c919061232f565b610fe3565b60405161037e91906121aa565b60405180910390f35b34801561039357600080fd5b506103ae60048036038101906103a99190611c15565b61107a565b6040516103bb9190611da1565b60405180910390f35b3480156103d057600080fd5b506103d961109e565b6040516103e69190611da1565b60405180910390f35b3480156103fb57600080fd5b5061041660048036038101906104119190612388565b6110aa565b005b34801561042457600080fd5b5061043f600480360381019061043a91906123b5565b6110d5565b005b806000600860008381526020019081526020016000206040518060c0016040529081600082015481526020016001820154815260200160028201548152602001600382015481526020016004820160009054906101000a900473ffffffffffffffffffffffffffffffffffffffff1673ffffffffffffffffffffffffffffffffffffffff1673ffffffffffffffffffffffffffffffffffffffff1681526020016004820160149054906101000a900460ff166002811115610505576105046121f6565b5b6002811115610517576105166121f6565b5b81525050905060008160000151141561055c576040517f0d294f3400000000000000000000000000000000000000000000000000000000815260040160405180910390fd5b600060086000858152602001908152602001600020905061058d8160040160149054906101000a900460ff166112f7565b61059a8160020154611358565b6105bd6105b8600c6000878152602001908152602001600020611395565b6113aa565b6000600660009054906101000a900473ffffffffffffffffffffffffffffffffffffffff1673ffffffffffffffffffffffffffffffffffffffff16635d3b1d3060025460008054906101000a900467ffffffffffffffff166003620186a060016040518663ffffffff1660e01b815260040161063d95949392919061244a565b602060405180830381600087803b15801561065757600080fd5b505af115801561066b573d6000803e3d6000fd5b505050506040513d601f19601f8201168201806040525081019061068f91906124b2565b905084600960008381526020019081526020016000208190555060018260040160146101000a81548160ff021916908360028111156106d1576106d06121f6565b5b021790555080857f708691262b677612d65fe057f7788158f3bfedcc25f9d7b50adaa889b0048ace60405160405180910390a35050505050565b60008054906101000a900467ffffffffffffffff1681565b6060610740600c60008481526020019081526020016000206113e8565b9050919050565b6000600b60003373ffffffffffffffffffffffffffffffffffffffff1673ffffffffffffffffffffffffffffffffffffffff16815260200190815260200160002054905090565b7f000000000000000000000000000000000000000000000000000000000000000073ffffffffffffffffffffffffffffffffffffffff163373ffffffffffffffffffffffffffffffffffffffff161461084057337f00000000000000000000000000000000000000000000000000000000000000006040517f1cf993f40000000000000000000000000000000000000000000000000000000081526004016108379291906124df565b60405180910390fd5b61084a8282611409565b5050565b60015481565b6000600b60003373ffffffffffffffffffffffffffffffffffffffff1673ffffffffffffffffffffffffffffffffffffffff168152602001908152602001600020549050600081116108a557600080fd5b6000600b60003373ffffffffffffffffffffffffffffffffffffffff1673ffffffffffffffffffffffffffffffffffffffff168152602001908152602001600020819055503373ffffffffffffffffffffffffffffffffffffffff168160405161090e90612539565b60006040518083038185875af1925050503d806000811461094b576040519150601f19603f3d011682016040523d82523d6000602084013e610950565b606091505b50505050565b600082828101906109679190611c15565b90506000600860008381526020019081526020016000206040518060c0016040529081600082015481526020016001820154815260200160028201548152602001600382015481526020016004820160009054906101000a900473ffffffffffffffffffffffffffffffffffffffff1673ffffffffffffffffffffffffffffffffffffffff1673ffffffffffffffffffffffffffffffffffffffff1681526020016004820160149054906101000a900460ff166002811115610a2c57610a2b6121f6565b5b6002811115610a3e57610a3d6121f6565b5b815250509050610a4d8161169c565b15610a5c57610a5b82610441565b5b50505050565b60006060600080604051806020016040528060008152509050600080610a88600461170a565b90505b83158015610a9857508082105b15610bda576000610ab383600461171f90919063ffffffff16565b90506000600860008381526020019081526020016000206040518060c0016040529081600082015481526020016001820154815260200160028201548152602001600382015481526020016004820160009054906101000a900473ffffffffffffffffffffffffffffffffffffffff1673ffffffffffffffffffffffffffffffffffffffff1673ffffffffffffffffffffffffffffffffffffffff1681526020016004820160149054906101000a900460ff166002811115610b7857610b776121f6565b5b6002811115610b8a57610b896121f6565b5b815250509050610b998161169c565b15610bc5576001955081604051602001610bb39190611da1565b60405160208183030381529060405294505b8380610bd09061257d565b9450505050610a8b565b838395509550505050509250929050565b6060610bf76004611739565b905090565b600760009054906101000a900473ffffffffffffffffffffffffffffffffffffffff1673ffffffffffffffffffffffffffffffffffffffff163373ffffffffffffffffffffffffffffffffffffffff161415610c84576040517fb8ea493b00000000000000000000000000000000000000000000000000000000815260040160405180910390fd5b806000600860008381526020019081526020016000206040518060c0016040529081600082015481526020016001820154815260200160028201548152602001600382015481526020016004820160009054906101000a900473ffffffffffffffffffffffffffffffffffffffff1673ffffffffffffffffffffffffffffffffffffffff1673ffffffffffffffffffffffffffffffffffffffff1681526020016004820160149054906101000a900460ff166002811115610d4857610d476121f6565b5b6002811115610d5a57610d596121f6565b5b815250509050600081600001511415610d9f576040517f0d294f3400000000000000000000000000000000000000000000000000000000815260040160405180910390fd5b6000600860008581526020019081526020016000209050610dbf8461175a565b610dd98160040160149054906101000a900460ff166112f7565b610de681600101546117bf565b34816003016000828254610dfa91906125c6565b92505081905550610e2633600c60008781526020019081526020016000206117fb90919063ffffffff16565b50600a60003373ffffffffffffffffffffffffffffffffffffffff1673ffffffffffffffffffffffffffffffffffffffff1681526020019081526020016000208490806001815401808255809150506001900390600052602060002001600090919091909150553373ffffffffffffffffffffffffffffffffffffffff16847f6c99a0dcc97bf964290aa2caae5586725125e73a4d885d742a168903403dc06e60405160405180910390a350505050565b600760009054906101000a900473ffffffffffffffffffffffffffffffffffffffff1681565b610f05611b6d565b600860008381526020019081526020016000206040518060c0016040529081600082015481526020016001820154815260200160028201548152602001600382015481526020016004820160009054906101000a900473ffffffffffffffffffffffffffffffffffffffff1673ffffffffffffffffffffffffffffffffffffffff1673ffffffffffffffffffffffffffffffffffffffff1681526020016004820160149054906101000a900460ff166002811115610fc657610fc56121f6565b5b6002811115610fd857610fd76121f6565b5b815250509050919050565b6060600a60008373ffffffffffffffffffffffffffffffffffffffff1673ffffffffffffffffffffffffffffffffffffffff16815260200190815260200160002080548060200260200160405190810160405280929190818152602001828054801561106e57602002820191906000526020600020905b81548152602001906001019080831161105a575b50505050509050919050565b600d818154811061108a57600080fd5b906000526020600020016000915090505481565b60038060000154905081565b806000806101000a81548167ffffffffffffffff021916908367ffffffffffffffff16021790555050565b600760009054906101000a900473ffffffffffffffffffffffffffffffffffffffff1673ffffffffffffffffffffffffffffffffffffffff163373ffffffffffffffffffffffffffffffffffffffff161461115c576040517f3e8be92f00000000000000000000000000000000000000000000000000000000815260040160405180910390fd5b6111658261182b565b61116e81611868565b6000814261117c91906125c6565b905061118860036118a6565b600061119460036118bc565b90506040518060c0016040528082815260200185815260200183815260200160008152602001600073ffffffffffffffffffffffffffffffffffffffff168152602001600060028111156111eb576111ea6121f6565b5b815250600860008381526020019081526020016000206000820151816000015560208201518160010155604082015181600201556060820151816003015560808201518160040160006101000a81548173ffffffffffffffffffffffffffffffffffffffff021916908373ffffffffffffffffffffffffffffffffffffffff16021790555060a08201518160040160146101000a81548160ff0219169083600281111561129b5761129a6121f6565b5b02179055509050506112b78160046118ca90919063ffffffff16565b5083817fbcab9af3175c8a9d53b9308a82ee378a84c65b0c22e3dfea2afac802c73a078a846040516112e99190611da1565b60405180910390a350505050565b6000600281111561130b5761130a6121f6565b5b81600281111561131e5761131d6121f6565b5b14611355576040517f4174a35500000000000000000000000000000000000000000000000000000000815260040160405180910390fd5b50565b42811115611392576040517fd9b64fdd00000000000000000000000000000000000000000000000000000000815260040160405180910390fd5b50565b60006113a3826000016118e4565b9050919050565b60028110156113e5576040517f99f46cd500000000000000000000000000000000000000000000000000000000815260040160405180910390fd5b50565b606060006113f8836000016118f5565b905060608190508092505050919050565b60006009600084815260200190815260200160002054905060006008600083815260200190815260200160002090506000611455600c60008581526020019081526020016000206113e8565b90506000818251866000815181106114705761146f61261c565b5b6020026020010151611482919061267a565b815181106114935761149261261c565b5b60200260200101519050808360040160006101000a81548173ffffffffffffffffffffffffffffffffffffffff021916908373ffffffffffffffffffffffffffffffffffffffff160217905550606460015484600301546114f491906126ab565b6114fe9190612705565b836003015461150d9190612736565b600b60008373ffffffffffffffffffffffffffffffffffffffff1673ffffffffffffffffffffffffffffffffffffffff168152602001908152602001600020600082825461155b91906125c6565b925050819055506064600154846003015461157691906126ab565b6115809190612705565b600b6000600760009054906101000a900473ffffffffffffffffffffffffffffffffffffffff1673ffffffffffffffffffffffffffffffffffffffff1673ffffffffffffffffffffffffffffffffffffffff16815260200190815260200160002060008282546115f091906125c6565b9250508190555060028360040160146101000a81548160ff0219169083600281111561161f5761161e6121f6565b5b021790555061163884600461195190919063ffffffff16565b508073ffffffffffffffffffffffffffffffffffffffff16847f4d3647387a0671b375a6cfb75769ed74ec10d3a37f6d3b392b12926fe9a099d160405160405180910390a36009600087815260200190815260200160002060009055505050505050565b60004282604001511080156116d95750600060028111156116c0576116bf6121f6565b5b8260a0015160028111156116d7576116d66121f6565b5b145b801561170357506001611701600c600085600001518152602001908152602001600020611395565b115b9050919050565b6000611718826000016118e4565b9050919050565b600061172e836000018361196b565b60001c905092915050565b60606000611749836000016118f5565b905060608190508092505050919050565b6000600c60008381526020019081526020016000209050611784338261199690919063ffffffff16565b156117bb576040517fbb25dcac00000000000000000000000000000000000000000000000000000000815260040160405180910390fd5b5050565b8034146117f8576040517f7289b57300000000000000000000000000000000000000000000000000000000815260040160405180910390fd5b50565b6000611823836000018373ffffffffffffffffffffffffffffffffffffffff1660001b6119c6565b905092915050565b60008111611865576040517f114eafc600000000000000000000000000000000000000000000000000000000815260040160405180910390fd5b50565b603c8110156118a3576040517fe2f2556e00000000000000000000000000000000000000000000000000000000815260040160405180910390fd5b50565b6001816000016000828254019250508190555050565b600081600001549050919050565b60006118dc836000018360001b6119c6565b905092915050565b600081600001805490509050919050565b60608160000180548060200260200160405190810160405280929190818152602001828054801561194557602002820191906000526020600020905b815481526020019060010190808311611931575b50505050509050919050565b6000611963836000018360001b611a36565b905092915050565b60008260000182815481106119835761198261261c565b5b9060005260206000200154905092915050565b60006119be836000018373ffffffffffffffffffffffffffffffffffffffff1660001b611b4a565b905092915050565b60006119d28383611b4a565b611a2b578260000182908060018154018082558091505060019003906000526020600020016000909190919091505582600001805490508360010160008481526020019081526020016000208190555060019050611a30565b600090505b92915050565b60008083600101600084815260200190815260200160002054905060008114611b3e576000600182611a689190612736565b9050600060018660000180549050611a809190612736565b9050818114611aef576000866000018281548110611aa157611aa061261c565b5b9060005260206000200154905080876000018481548110611ac557611ac461261c565b5b90600052602060002001819055508387600101600083815260200190815260200160002081905550505b85600001805480611b0357611b0261276a565b5b600190038181906000526020600020016000905590558560010160008681526020019081526020016000206000905560019350505050611b44565b60009150505b92915050565b600080836001016000848152602001908152602001600020541415905092915050565b6040518060c0016040528060008152602001600081526020016000815260200160008152602001600073ffffffffffffffffffffffffffffffffffffffff16815260200160006002811115611bc557611bc46121f6565b5b81525090565b6000604051905090565b600080fd5b600080fd5b6000819050919050565b611bf281611bdf565b8114611bfd57600080fd5b50565b600081359050611c0f81611be9565b92915050565b600060208284031215611c2b57611c2a611bd5565b5b6000611c3984828501611c00565b91505092915050565b600067ffffffffffffffff82169050919050565b611c5f81611c42565b82525050565b6000602082019050611c7a6000830184611c56565b92915050565b600081519050919050565b600082825260208201905092915050565b6000819050602082019050919050565b600073ffffffffffffffffffffffffffffffffffffffff82169050919050565b6000611cd782611cac565b9050919050565b611ce781611ccc565b82525050565b6000611cf98383611cde565b60208301905092915050565b6000602082019050919050565b6000611d1d82611c80565b611d278185611c8b565b9350611d3283611c9c565b8060005b83811015611d63578151611d4a8882611ced565b9750611d5583611d05565b925050600181019050611d36565b5085935050505092915050565b60006020820190508181036000830152611d8a8184611d12565b905092915050565b611d9b81611bdf565b82525050565b6000602082019050611db66000830184611d92565b92915050565b600080fd5b6000601f19601f8301169050919050565b7f4e487b7100000000000000000000000000000000000000000000000000000000600052604160045260246000fd5b611e0a82611dc1565b810181811067ffffffffffffffff82111715611e2957611e28611dd2565b5b80604052505050565b6000611e3c611bcb565b9050611e488282611e01565b919050565b600067ffffffffffffffff821115611e6857611e67611dd2565b5b602082029050602081019050919050565b600080fd5b6000611e91611e8c84611e4d565b611e32565b90508083825260208201905060208402830185811115611eb457611eb3611e79565b5b835b81811015611edd5780611ec98882611c00565b845260208401935050602081019050611eb6565b5050509392505050565b600082601f830112611efc57611efb611dbc565b5b8135611f0c848260208601611e7e565b91505092915050565b60008060408385031215611f2c57611f2b611bd5565b5b6000611f3a85828601611c00565b925050602083013567ffffffffffffffff811115611f5b57611f5a611bda565b5b611f6785828601611ee7565b9150509250929050565b600080fd5b60008083601f840112611f8c57611f8b611dbc565b5b8235905067ffffffffffffffff811115611fa957611fa8611f71565b5b602083019150836001820283011115611fc557611fc4611e79565b5b9250929050565b60008060208385031215611fe357611fe2611bd5565b5b600083013567ffffffffffffffff81111561200157612000611bda565b5b61200d85828601611f76565b92509250509250929050565b60008115159050919050565b61202e81612019565b82525050565b600081519050919050565b600082825260208201905092915050565b60005b8381101561206e578082015181840152602081019050612053565b8381111561207d576000848401525b50505050565b600061208e82612034565b612098818561203f565b93506120a8818560208601612050565b6120b181611dc1565b840191505092915050565b60006040820190506120d16000830185612025565b81810360208301526120e38184612083565b90509392505050565b600081519050919050565b600082825260208201905092915050565b6000819050602082019050919050565b61212181611bdf565b82525050565b60006121338383612118565b60208301905092915050565b6000602082019050919050565b6000612157826120ec565b61216181856120f7565b935061216c83612108565b8060005b8381101561219d5781516121848882612127565b975061218f8361213f565b925050600181019050612170565b5085935050505092915050565b600060208201905081810360008301526121c4818461214c565b905092915050565b6121d581611ccc565b82525050565b60006020820190506121f060008301846121cc565b92915050565b7f4e487b7100000000000000000000000000000000000000000000000000000000600052602160045260246000fd5b60038110612236576122356121f6565b5b50565b600081905061224782612225565b919050565b600061225782612239565b9050919050565b6122678161224c565b82525050565b60c0820160008201516122836000850182612118565b5060208201516122966020850182612118565b5060408201516122a96040850182612118565b5060608201516122bc6060850182612118565b5060808201516122cf6080850182611cde565b5060a08201516122e260a085018261225e565b50505050565b600060c0820190506122fd600083018461226d565b92915050565b61230c81611ccc565b811461231757600080fd5b50565b60008135905061232981612303565b92915050565b60006020828403121561234557612344611bd5565b5b60006123538482850161231a565b91505092915050565b61236581611c42565b811461237057600080fd5b50565b6000813590506123828161235c565b92915050565b60006020828403121561239e5761239d611bd5565b5b60006123ac84828501612373565b91505092915050565b600080604083850312156123cc576123cb611bd5565b5b60006123da85828601611c00565b92505060206123eb85828601611c00565b9150509250929050565b6000819050919050565b612408816123f5565b82525050565b600061ffff82169050919050565b6124258161240e565b82525050565b600063ffffffff82169050919050565b6124448161242b565b82525050565b600060a08201905061245f60008301886123ff565b61246c6020830187611c56565b612479604083018661241c565b612486606083018561243b565b612493608083018461243b565b9695505050505050565b6000815190506124ac81611be9565b92915050565b6000602082840312156124c8576124c7611bd5565b5b60006124d68482850161249d565b91505092915050565b60006040820190506124f460008301856121cc565b61250160208301846121cc565b9392505050565b600081905092915050565b50565b6000612523600083612508565b915061252e82612513565b600082019050919050565b600061254482612516565b9150819050919050565b7f4e487b7100000000000000000000000000000000000000000000000000000000600052601160045260246000fd5b600061258882611bdf565b91507fffffffffffffffffffffffffffffffffffffffffffffffffffffffffffffffff8214156125bb576125ba61254e565b5b600182019050919050565b60006125d182611bdf565b91506125dc83611bdf565b9250827fffffffffffffffffffffffffffffffffffffffffffffffffffffffffffffffff038211156126115761261061254e565b5b828201905092915050565b7f4e487b7100000000000000000000000000000000000000000000000000000000600052603260045260246000fd5b7f4e487b7100000000000000000000000000000000000000000000000000000000600052601260045260246000fd5b600061268582611bdf565b915061269083611bdf565b9250826126a05761269f61264b565b5b828206905092915050565b60006126b682611bdf565b91506126c183611bdf565b9250817fffffffffffffffffffffffffffffffffffffffffffffffffffffffffffffffff04831182151516156126fa576126f961254e565b5b828202905092915050565b600061271082611bdf565b915061271b83611bdf565b92508261272b5761272a61264b565b5b828204905092915050565b600061274182611bdf565b915061274c83611bdf565b92508282101561275f5761275e61254e565b5b828203905092915050565b7f4e487b7100000000000000000000000000000000000000000000000000000000600052603160045260246000fdfea26469706673582212205c5f9386da298ee50922387fb1c7f7536a82df9ded1e4f440ffd4efde15a6cb964736f6c63430008090033",
  "devdoc": {
    "author": "Ezequiel Pedro Crespo",
    "kind": "dev",
    "methods": {
      "checkUpkeep(bytes)": {
        "details": "called by keepers to check if at least one lottery is ready to be closed       It returns the first one ready to be closed that it finds.",
        "returns": {
          "_0": "a tuple with boolean and the encoded lottery id to be closed if exists"
        }
      },
      "createLottery(uint256,uint256)": {
        "details": "creates a new lottery",
        "params": {
          "_duration": "how much time the lottery will last in seconds",
          "_ticket": "amount of money needed to participate in the lottery"
        }
      },
      "declareWinner(uint256)": {
        "details": "Requests a random number to oracles and closes the correspondent lottery.       Reverts if the end time has not come yet, if there are not at least two participants or if       this method is called again after randomness is requested but not done.",
        "params": {
          "_lotteryId": "lottery id"
        }
      },
      "getBalance()": {
        "details": "returns an account's balance",
        "returns": {
          "_0": "the account"
        }
      },
      "getLottery(uint256)": {
        "details": "returns a lottery by id",
        "params": {
          "_lotteryId": "the lottery id"
        },
        "returns": {
          "_0": "the lottery"
        }
      },
      "getOpenLotteriesIds()": {
        "details": "returns the ids of the lotteries where winner has not been established yet.       The lotteries may be already closed and randomness requested but not received.",
        "returns": {
          "_0": "the list of lotteries ids"
        }
      },
      "getParticipantsByLotteryId(uint256)": {
        "details": "returns the list of participants in a specific lottery",
        "params": {
          "_lotteryId": "lottery id"
        },
        "returns": {
          "_0": "the list of participants"
        }
      },
      "getParticipationsByUser(address)": {
        "details": "returns a list of lotteries ids which user has participated in",
        "params": {
          "_user": "the user address"
        },
        "returns": {
          "_0": "the list of the participations"
        }
      },
      "participate(uint256)": {
        "details": "adds the caller as a new participant to correspondent lottery",
        "params": {
          "_lotteryId": "lottery id"
        }
      },
      "performUpkeep(bytes)": {
        "details": "called by keeper to initiate the process of requesting a random number       and establish a winner for a specific lottery, after checking again if       conditions are meet for security reasons",
        "params": {
          "performData": "encoded id for the lottery sent by checkUpkeep"
        }
      },
      "setSubscriptionId(uint64)": {
        "details": "sets the subscription id for the VRF",
        "params": {
          "_subscriptionId": "the subscription ID"
        }
      },
      "withdraw()": {
        "details": "withdrawal"
      }
    },
    "title": "Crypto lottery game",
    "version": 1
  },
  "userdoc": {
    "kind": "user",
    "methods": {},
    "version": 1
  },
  "storageLayout": {
    "storage": [
      {
        "astId": 1056,
        "contract": "contracts/LotteryGame.sol:LotteryGame",
        "label": "subscriptionId",
        "offset": 0,
        "slot": "0",
        "type": "t_uint64"
      },
      {
        "astId": 1058,
        "contract": "contracts/LotteryGame.sol:LotteryGame",
        "label": "platformFee",
        "offset": 0,
        "slot": "1",
        "type": "t_uint256"
      },
      {
        "astId": 1060,
        "contract": "contracts/LotteryGame.sol:LotteryGame",
        "label": "keyHash",
        "offset": 0,
        "slot": "2",
        "type": "t_bytes32"
      },
      {
        "astId": 1063,
        "contract": "contracts/LotteryGame.sol:LotteryGame",
        "label": "lotteryId",
        "offset": 0,
        "slot": "3",
        "type": "t_struct(Counter)305_storage"
      },
      {
        "astId": 1066,
        "contract": "contracts/LotteryGame.sol:LotteryGame",
        "label": "openLotteries",
        "offset": 0,
        "slot": "4",
        "type": "t_struct(UintSet)842_storage"
      },
      {
        "astId": 1069,
        "contract": "contracts/LotteryGame.sol:LotteryGame",
        "label": "coordinator",
        "offset": 0,
        "slot": "6",
        "type": "t_contract(VRFCoordinatorV2Interface)299"
      },
      {
        "astId": 1071,
        "contract": "contracts/LotteryGame.sol:LotteryGame",
        "label": "owner",
        "offset": 0,
        "slot": "7",
        "type": "t_address"
      },
      {
        "astId": 1076,
        "contract": "contracts/LotteryGame.sol:LotteryGame",
        "label": "lotteryById",
        "offset": 0,
        "slot": "8",
        "type": "t_mapping(t_uint256,t_struct(Lottery)1041_storage)"
      },
      {
        "astId": 1080,
        "contract": "contracts/LotteryGame.sol:LotteryGame",
        "label": "lotteryIdByRequestId",
        "offset": 0,
        "slot": "9",
        "type": "t_mapping(t_uint256,t_uint256)"
      },
      {
        "astId": 1085,
        "contract": "contracts/LotteryGame.sol:LotteryGame",
        "label": "participationsByUser",
        "offset": 0,
        "slot": "10",
        "type": "t_mapping(t_address,t_array(t_uint256)dyn_storage)"
      },
      {
        "astId": 1089,
        "contract": "contracts/LotteryGame.sol:LotteryGame",
        "label": "balances",
        "offset": 0,
        "slot": "11",
        "type": "t_mapping(t_address,t_uint256)"
      },
      {
        "astId": 1094,
        "contract": "contracts/LotteryGame.sol:LotteryGame",
        "label": "participantsByLotteryId",
        "offset": 0,
        "slot": "12",
        "type": "t_mapping(t_uint256,t_struct(AddressSet)685_storage)"
      },
      {
        "astId": 1097,
        "contract": "contracts/LotteryGame.sol:LotteryGame",
        "label": "randomWords",
        "offset": 0,
        "slot": "13",
        "type": "t_array(t_uint256)dyn_storage"
      }
    ],
    "types": {
      "t_address": {
        "encoding": "inplace",
        "label": "address",
        "numberOfBytes": "20"
      },
      "t_array(t_bytes32)dyn_storage": {
        "base": "t_bytes32",
        "encoding": "dynamic_array",
        "label": "bytes32[]",
        "numberOfBytes": "32"
      },
      "t_array(t_uint256)dyn_storage": {
        "base": "t_uint256",
        "encoding": "dynamic_array",
        "label": "uint256[]",
        "numberOfBytes": "32"
      },
      "t_bytes32": {
        "encoding": "inplace",
        "label": "bytes32",
        "numberOfBytes": "32"
      },
      "t_contract(VRFCoordinatorV2Interface)299": {
        "encoding": "inplace",
        "label": "contract VRFCoordinatorV2Interface",
        "numberOfBytes": "20"
      },
      "t_enum(State)1045": {
        "encoding": "inplace",
        "label": "enum LotteryGame.State",
        "numberOfBytes": "1"
      },
      "t_mapping(t_address,t_array(t_uint256)dyn_storage)": {
        "encoding": "mapping",
        "key": "t_address",
        "label": "mapping(address => uint256[])",
        "numberOfBytes": "32",
        "value": "t_array(t_uint256)dyn_storage"
      },
      "t_mapping(t_address,t_uint256)": {
        "encoding": "mapping",
        "key": "t_address",
        "label": "mapping(address => uint256)",
        "numberOfBytes": "32",
        "value": "t_uint256"
      },
      "t_mapping(t_bytes32,t_uint256)": {
        "encoding": "mapping",
        "key": "t_bytes32",
        "label": "mapping(bytes32 => uint256)",
        "numberOfBytes": "32",
        "value": "t_uint256"
      },
      "t_mapping(t_uint256,t_struct(AddressSet)685_storage)": {
        "encoding": "mapping",
        "key": "t_uint256",
        "label": "mapping(uint256 => struct EnumerableSet.AddressSet)",
        "numberOfBytes": "32",
        "value": "t_struct(AddressSet)685_storage"
      },
      "t_mapping(t_uint256,t_struct(Lottery)1041_storage)": {
        "encoding": "mapping",
        "key": "t_uint256",
        "label": "mapping(uint256 => struct LotteryGame.Lottery)",
        "numberOfBytes": "32",
        "value": "t_struct(Lottery)1041_storage"
      },
      "t_mapping(t_uint256,t_uint256)": {
        "encoding": "mapping",
        "key": "t_uint256",
        "label": "mapping(uint256 => uint256)",
        "numberOfBytes": "32",
        "value": "t_uint256"
      },
      "t_struct(AddressSet)685_storage": {
        "encoding": "inplace",
        "label": "struct EnumerableSet.AddressSet",
        "members": [
          {
            "astId": 684,
            "contract": "contracts/LotteryGame.sol:LotteryGame",
            "label": "_inner",
            "offset": 0,
            "slot": "0",
            "type": "t_struct(Set)384_storage"
          }
        ],
        "numberOfBytes": "64"
      },
      "t_struct(Counter)305_storage": {
        "encoding": "inplace",
        "label": "struct Counters.Counter",
        "members": [
          {
            "astId": 304,
            "contract": "contracts/LotteryGame.sol:LotteryGame",
            "label": "_value",
            "offset": 0,
            "slot": "0",
            "type": "t_uint256"
          }
        ],
        "numberOfBytes": "32"
      },
      "t_struct(Lottery)1041_storage": {
        "encoding": "inplace",
        "label": "struct LotteryGame.Lottery",
        "members": [
          {
            "astId": 1029,
            "contract": "contracts/LotteryGame.sol:LotteryGame",
            "label": "id",
            "offset": 0,
            "slot": "0",
            "type": "t_uint256"
          },
          {
            "astId": 1031,
            "contract": "contracts/LotteryGame.sol:LotteryGame",
            "label": "ticket",
            "offset": 0,
            "slot": "1",
            "type": "t_uint256"
          },
          {
            "astId": 1033,
            "contract": "contracts/LotteryGame.sol:LotteryGame",
            "label": "endTime",
            "offset": 0,
            "slot": "2",
            "type": "t_uint256"
          },
          {
            "astId": 1035,
            "contract": "contracts/LotteryGame.sol:LotteryGame",
            "label": "jackpot",
            "offset": 0,
            "slot": "3",
            "type": "t_uint256"
          },
          {
            "astId": 1037,
            "contract": "contracts/LotteryGame.sol:LotteryGame",
            "label": "winner",
            "offset": 0,
            "slot": "4",
            "type": "t_address"
          },
          {
            "astId": 1040,
            "contract": "contracts/LotteryGame.sol:LotteryGame",
            "label": "state",
            "offset": 20,
            "slot": "4",
            "type": "t_enum(State)1045"
          }
        ],
        "numberOfBytes": "160"
      },
      "t_struct(Set)384_storage": {
        "encoding": "inplace",
        "label": "struct EnumerableSet.Set",
        "members": [
          {
            "astId": 379,
            "contract": "contracts/LotteryGame.sol:LotteryGame",
            "label": "_values",
            "offset": 0,
            "slot": "0",
            "type": "t_array(t_bytes32)dyn_storage"
          },
          {
            "astId": 383,
            "contract": "contracts/LotteryGame.sol:LotteryGame",
            "label": "_indexes",
            "offset": 0,
            "slot": "1",
            "type": "t_mapping(t_bytes32,t_uint256)"
          }
        ],
        "numberOfBytes": "64"
      },
      "t_struct(UintSet)842_storage": {
        "encoding": "inplace",
        "label": "struct EnumerableSet.UintSet",
        "members": [
          {
            "astId": 841,
            "contract": "contracts/LotteryGame.sol:LotteryGame",
            "label": "_inner",
            "offset": 0,
            "slot": "0",
            "type": "t_struct(Set)384_storage"
          }
        ],
        "numberOfBytes": "64"
      },
      "t_uint256": {
        "encoding": "inplace",
        "label": "uint256",
        "numberOfBytes": "32"
      },
      "t_uint64": {
        "encoding": "inplace",
        "label": "uint64",
        "numberOfBytes": "8"
      }
    }
  }
}